:020000040800F2
:10000000180C0020A10100088F380008E93600080C
:1000100000000000000000000000000000000000E0
:1000200000000000000000000000000093380008FD
:10003000000000000000000091380008953800081A
:10004000B3010008B3010008B3010008B3010008C0
:10005000B3010008B3010008B3010008B3010008B0
:10006000B3010008B3010008B3010008B3010008A0
:10007000B3010008B3010008B301000859390008B2
:10008000B3010008B3010008B3010008000000003C
:10009000B3010008B3010008B3010008B301000870
:1000A000B3010008B3010008B3010008B301000860
:1000B000B3010008B3010008B3010008B301000850
:1000C00000F002F800F05CF812A030C808382418DC
:1000D0002D18AC4201D100F053F80FCCA246AB462C
:1000E0000CA730CF2D1B083F3F197C427F1E544484
:1000F0002D090426F441641EAC4201D300F040F8FF
:100100000126334200D0FB1A3343984754465D46DC
:10011000DFE70000F0590000105A0000103A02D347
:1001200078C878C1FAD8520701D330C830C101D598
:1001300004680C6070470000704700000023002432
:1001400000250026103A01D378C1FBD8520700D30E
:1001500030C100D50B60704710B5662902D104F09C
:1001600075FD10BD002010BD1FB500F091FF04000B
:100170000020002104F024FCE0601FBD10B510BD7C
:1001800001F082FB1146FFF7EFFF03F089FE01F05B
:100190009AFB03B4FFF7F2FF03BC01F045FC00003B
:1001A0000748804707480047FEE7FEE7FEE7FEE70F
:1001B000FEE7FEE704480549054A064B7047000084
:1001C00055390008C100000818060020180C00204E
:1001D0001808002018080020FEB5044610460D46F9
:1001E000184373D0A6468C460020A41A01469D41B0
:1001F00067D36646002701243D46B61A9D4102D3C7
:1002000013463A462124654676462F04360C3E4373
:100210002D0CB61A9D4104D3150C1B042B4312045C
:100220001034654676462F06360A3E432D0AB61A26
:100230009D4104D3150E1B022B4312020834654660
:1002400076462F0736093E432D09B61A9D4104D341
:10025000150F1B012B431201241D65467646AF077F
:10026000B6083E43AD08B61A9D4104D3950F9B00D6
:100270002B439200A41C65467646EF0776083E4362
:100280006D08B61A9D411AD392185B41641C16E0A2
:100290000018764665464941B71A9D410191009084
:1002A00009D36046B11A98418E4684460098019958
:1002B0000025401C6941DD0752082A435B08641E83
:1002C000E6D57246634603B0F0BDFFE720462843FB
:1002D00007D00020C0430146C046C04622462B46F8
:1002E000F1E700200146F7E70FB41CB5074B06AA5B
:1002F0007B4469460090059800F0B1FE00206946F5
:1003000000F0C0FE1CBC08BC04B01847910D0000F2
:10031000F3B50446002081B020622046E16888479A
:1003200000287DD0252802D06268A16883E0454F6F
:1003300000257F442046E16888472028064608DBE0
:10034000312E06D2B81920380078002801D0054394
:10035000F0E7A80701D5042085430020E0610746A7
:10036000A0612A2E0AD0304604F023FB002827D0B3
:10037000B8000019303E0090866119E00298BA007A
:10038000121902C8916102902046E1688847012F46
:10039000064617D1E06900281FDA202085431CE0BB
:1003A00000980A2180694843009980193038886193
:1003B0002046E1688847064604F0FBFA0028EFD1A2
:1003C000012F0AD02E2E08D12046E1688847064624
:1003D000202005437F1C022FC3DBA069002803DA1D
:1003E0004042A06101200543E80701D01020854369
:1003F000002E24D030464138192803D80120C002ED
:1004000005432036204625603146029A1546FFF7FF
:10041000A3FE00280CD0012807D0ED1DE80800E05D
:100420000DE0C0000830029077E72D1D029574E7BB
:1004300062683046A1689047206A401C6CE7206AD9
:10044000FEBD00002649000030B5441C03E00178E1
:10045000401C00290DD08107F9D10B4BDD0104C8E8
:10046000D11A91432940FAD0001B0A0603D0C01EBE
:1004700030BD001B30BD0A0401D0801E30BD090212
:10048000FCD0401E30BD000001010101D2B210B508
:1004900013029A1813049A1800F001F810BD01E035
:1004A00004C0091F0429FBD28B0701D50280801CE0
:1004B000C90700D00270704700290BD0C30702D0D3
:1004C0000270401C491E022904D3830702D5028012
:1004D000801C891EE3E70022EEE70022DFE7000030
:1004E000002203098B4273D3030A8B4258D3030BB8
:1004F0008B423CD3030C8B4221D312E003460B43C7
:100500007FD4002243088B4274D303098B425FD30C
:10051000030A8B4244D3030B8B4228D3030C8B4238
:100520000DD30902FF2212BA030C8B4202D312121E
:10053000090265D0030B8B4219D300E0090AC30BF3
:100540008B4201D3CB03C01A5241830B8B4201D3A0
:100550008B03C01A5241430B8B4201D34B03C01A89
:100560005241030B8B4201D30B03C01A5241C30A01
:100570008B4201D3CB02C01A5241830A8B4201D372
:100580008B02C01A5241430A8B4201D34B02C01A5C
:100590005241030A8B4201D30B02C01A5241CDD201
:1005A000C3098B4201D3CB01C01A524183098B424C
:1005B00001D38B01C01A524143098B4201D34B0135
:1005C000C01A524103098B4201D30B01C01A524198
:1005D000C3088B4201D3CB00C01A524183088B421F
:1005E00001D38B00C01A524143088B4201D34B0008
:1005F000C01A5241411A00D201465241104670477A
:100600005DE0CA0F00D04942031000D3404253407E
:100610009C46002203098B422DD3030A8B4212D33E
:100620008901FC2212BA030A8B420CD38901921170
:100630008B4208D3890192118B4204D389013AD0AD
:10064000921100E08909C3098B4201D3CB01C01A82
:10065000524183098B4201D38B01C01A5241430995
:100660008B4201D34B01C01A524103098B4201D383
:100670000B01C01A5241C3088B4201D3CB00C01AF0
:10068000524183088B4201D38B00C01A5241D9D208
:1006900043088B4201D34B00C01A5241411A00D289
:1006A00001465241104663465B1001D34042002B85
:1006B00000D54942704763465B1000D3404201B504
:1006C0000449002802DC491C084000E00846C046F6
:1006D000C04602BDFFFFFF7F7047704770470000B4
:1006E0000246C80FC00781434B0030B54B405B004A
:1006F0009B0D20D01923DB06C91801231B05994245
:1007000020DB0324A40704251346AB400BD3002BA6
:1007100004D1EB0613409B00E34204D40124640798
:10072000002312195941FF231B0599420BD2C9001E
:100730000143500F09E0CB0204D5014308030243F3
:1007400005D0054830BDFF21C905084330BD084626
:1007500007210905884330BD0000C07F1F22030C1C
:1007600002D10F22000402D0030E03D004E00020C7
:10077000014670470002083A030F01D10001121F21
:10078000830F01D18000921E002801DB4000521E21
:10079000120551184205C012411810467047C10F8A
:1007A000C90700D04042012292071143D6E7012138
:1007B0008907D3E7F0B58B4C0F09254689B0BD43B7
:1007C0007BD01D092646AE43FAD00E465E40274038
:1007D000F60F3E43254071D024012142FBD0FF2477
:1007E000AD19A4042D1B039501252D05DB02DB0AA1
:1007F000C9022B43C90A29431E010901040F130F23
:10080000050121431701880B820391432D098C4672
:10081000A90B1E438A039543B30B9A0396433F09E2
:10082000BA0B9403A74302962E467E430497B6461E
:100830004E19D7190C460196544305977E43371B32
:100840007646BF1B3601B646BE0B36190096764675
:10085000BC043719009C01D3641C00946400002F71
:1008600001D001263443029E049F754366467E43B1
:100870000496760034196E0034190094029C019E8F
:100880001C196643751BAE46069465464519059CC2
:1008900005956C43594375460891691A0191049E68
:1008A00001465143A41B0491611A009C0791E10683
:1008B00005D061090122114302E072E06EE0610996
:1008C000089D00272C0A2D066918049D7C412A0AE0
:1008D0002D066918019D6241AC0DAD026D185441A1
:1008E000079A910D920255196141029A6446584344
:1008F0005443069B059A5A43121A131B9A0E9B01E6
:100900005B187A41010B0005C3185141220A2006E9
:1009100044195A419A4200D2491C012040028142A6
:1009200003D315230226F64302E014230326F643DD
:100930002020C51AA9401746AF40DA400A43204696
:100940000399D8400914731819055118039A3843AC
:10095000D2075140AC4009D00122944006D3002276
:10096000401C5141002C01D1400840001E4A9342D6
:1009700012D3012203989206904207DB052040071C
:1009800009181A480143C012414004E003204007FF
:100990000818C10FC907002009B0F0BD0020F107F9
:1009A000FAE705180C464C4111486D42A04115D399
:1009B00094181A465A410E48644290410ED30120C1
:1009C0004A004005824209D35A00824206D3594068
:1009D000C90F084AC90700201143DDE70020064976
:1009E000DAE700000000FF07FE070000FFFFFF7FBF
:1009F0000000E0FF0000F07F0000F87F0121C90542
:100A00000123411842001B06D3185B0E0AD0C11007
:100A10000722D206891840075242D14201D552001E
:100A200089187047090208D50146002A03D0C10F72
:100A3000C9070020704710467047420202D00020CC
:100A400002497047072109050143F4E70000F87FD8
:100A5000F0B5FF252D04C609C209FF2704462E4024
:100A60000137CB093E4348402A402B400746002A25
:100A70006BD0002B69D0AA4267D0AB4265D000286A
:100A800000DA32460125ED0529432C4309022002F4
:100A9000090AD21A4B0C7F24E31A434C000A7C4407
:100AA000E35C7D242404121914145B00A21888420C
:100AB00001D3521C00E0400049420C465C43241123
:100AC0005C43DB016415E318040A5C43C502200D96
:100AD0000C4644436419250A5D432303EC0C0D4680
:100AE000654300030019EB184C42A34201D35B1885
:100AF000401CD4052018002B07D05B00C91804D374
:100B0000401C002901D1400840003F2189048A424D
:100B100009D3002A08DC1106090F04D00321490774
:100B20004018C00FC007F0BD01224100120689180D
:100B30007F2252069142F6D205214907C84201D5CB
:100B40009010F0BDFF20C005F0BD002F00DA324646
:100B50001648AA4207D2AB4205D21902090E17D095
:100B6000F80FC007F0BDFF2563002D06AB42F9D892
:100B70004900A942F6D8AB4201D1A942F2D0A9421C
:100B800001D1002101E061004908D0050843F0BD12
:100B90001102090EFBD0FF200243D005F0BD0A462A
:100BA0000146104654E70000CB4100000000C07F22
:100BB0000102C21504D00123DB071943002A0ADB16
:100BC0009E239A1A02D40846D0407047FF22410063
:100BD0001206914201D900207047C017C0437047E8
:100BE0001F22030C02D10F2200041CD0030E01D1DE
:100BF0000002083A030F01D10001121F830F01D137
:100C00008000921E002801DB4000521ED2055118C0
:100C1000021251181922904004D3491C002801D116
:100C20004908490008467047C10FC90700D0404233
:100C3000012292071143D3E701218907D0E7000081
:100C4000FFB50C461E468FB003CA089009914F00AD
:100C50007D0D00D16D1E002108460020C0460321F5
:100C6000099A89050840002A03DA820080184008A2
:100C70000840800D01280A9002DD0020C0430A9040
:100C8000089807430DD0F048F04928184843071446
:100C9000189800281DD07542291E1DDD0A98424271
:100CA0001BE01898012802D00020302104E0002029
:100CB000F24305E02154401CB042FBDB30460022E9
:100CC000189B002121540F998B600A60486013B073
:100CD000F0BDBD1B6D1CDFE70A9A002900DA6942EE
:100CE0000BA800F05BFA0BAB07CB03AB07C308996B
:100CF000099800F0BFFA6B4607C30146D4480918AB
:100D0000002D00910BDDD24903980A9A4942401800
:100D1000002303A90390684600F01CFD08E0039936
:100D20000A9A0023081803A90390684600F0BCFC47
:100D30006B4607C30004000C03D00020C0434108E9
:100D400000E01046189A002A03D0002200921546AF
:100D50001EE0751E05D400F09FF9303262556D1EFD
:100D6000F9D501220843079602D000227F1C04E037
:100D70002078302801D100227F1E002A069787D0D4
:100D80001EE0112D07DA00F087F9303262556D1C34
:100D900002460A43F5D1084303D00098002819D031
:100DA0000EE00021681E05E0235C625C635422545F
:100DB000401E491C8142F7DBA81B401E0795069088
:100DC000079A18990020A0540F98079B069A8160F3
:100DD0000CC07CE711260020189059E7D21DF0B511
:100DE0000D460446D10893B0C90003C90C900D917B
:100DF00003F0BEFD02460D98C00F01D02D2007E084
:100E00002068810701D52B2002E04007C00F400178
:100E1000032A0F9001D0072A05DB03462946204606
:100E200000F078F90EE12078800601D5E76900E04E
:100E300006272846652D04D0662814D0672D69D171
:100E40002DE00020112F009001DB112300E07B1C1E
:100E50000CAA03A910A8FFF7F3FE11990026109819
:100E60007D1C0E9142E001203B460CAAC0070B906E
:100E70000120009003A910A8FFF7E2FE119D12982F
:100E80001099002600280E9501D1781C0D18781BAA
:100E900002D446427D1C761EE81B00903AE0012FEA
:100EA00000DA01270020112F009001DD112300E05E
:100EB0003B460CAA03A910A8FFF7C2FE11993D46B4
:100EC000109800260E91217809070BD40E99A9429B
:100ED00000DA0D4603A9012D04DD4A19203AD27F1C
:100EE000302A06D0B84201DA011D04DA012100914E
:100EF0000FE06D1EEFE7002802DC86192D1A03E0D3
:100F0000411CA94200DD0D46801B401C00900120C1
:100F1000C0070B902078000705D40098A84202DB98
:100F20000020C043009069460020C8720B98012140
:100F300002AF0337C907884225D0022010902B202A
:100F400011900B9800280BDA40420B902D20119045
:100F500006E00B9800F04EFC30317F1E0B9039708C
:100F60001099481E00291090F3DC0B980028F0D14E
:100F700011987F1E38702088000501D5452000E0BB
:100F800065207F1E387001A8C01BC01D0B900F98F4
:100F9000002800D0012041190098C01709180B98AB
:100FA0000818A169081A401EA0612078C00602D462
:100FB0002046C046C0460F98002805D06268A16848
:100FC0009047206A401C20622078C00625D5204624
:100FD000C046C04621E0002E07DB0E98B04204DD7B
:100FE00003A86268805DA16802E06268A1683020A1
:100FF0009047206A761C401C20620098401E002802
:1010000000900AD100F044F8C06862680168405C52
:10101000A1689047206A401C206228466D1E002867
:10102000D9DC07E062683878A1687F1C9047206AA5
:10103000401C20620B99481E00290B90F2DC2046D0
:10104000C046C046032042E601FCFFFF104D0000F1
:10105000E1DFFFFF01694A1C02610878704700B5B3
:101060008FB00291002105910549019379440391C4
:10107000114604906846FFF74BF90FB000BD000021
:10108000E5FFFFFF0A681070521C0A6070470000FD
:1010900000487047380000200B4670B502468907AB
:1010A0008008084319469D08141AA9412509080714
:1010B000054308092C194841250A01060D43010A78
:1010C0002C194141200C0D0428430D0C00194D41F1
:1010D000002140194D41C00869070843E908840F01
:1010E0008D002543840024184D4124196D41121BA5
:1010F000AB4107E00925ED432C115219634100244F
:10110000401C61411C460A250026551BB441F1D202
:1011100070BD0000F8B51F46044601230068DB02DD
:10112000032601461840072A05DB002801D017A531
:1011300006E017A504E0002801D016A500E016A5DA
:10114000102081432160A069C01E002FA06101D042
:10115000401EA0612046C046C046002F09D0384638
:101160006268A1689047206A401C2062C01C20620F
:1011700006E0206AFAE762682878A1686D1C90474B
:10118000761EF8D22046C046C046F8BD4E414E00FD
:101190006E616E00494E4600696E6600F7B51646F0
:1011A0008AB0334878446C4603467C33C06F5A6833
:1011B0009B680DC42E487844763003AC0DC80DC42E
:1011C0003720C001081837211B30FFF797F9054673
:1011D0000C46803D1B3C02D56442012000E000200B
:1011E0000027099010E0E0070CD00C20204978433C
:1011F000794432464C3941186846012300F054FACC
:101200006B4607C364107F1C002CECD1184F7F4441
:101210002E3F16E0E80712D02001C0190EC8069133
:10122000089307920068F04201D19819089032465D
:10123000012306A903A800F037FA03AB07C36D101A
:10124000641C002DE6D10998002806D03246694674
:10125000012303A800F07EFA05E001233246694627
:1012600003A800F021FA0A9B07C30DB0F0BD0000EF
:10127000083B0000034640000A4610B5400D0BD065
:101280000121C9070F24A40200191C03640821438B
:10129000540D2143D20207E000210120F2E7D40FD0
:1012A000490021435200401E0029F8DADB0FDB071A
:1012B000184310BDFFB50D46144685B04868516807
:1012C00003F03EFB00910190A868A16803F038FB91
:1012D00002910390A868616803F032FB029A121829
:1012E0008242029201D2012000E00020019A0B18F4
:1012F000D2180028019202D08A4202D903E08A4221
:1013000001D2012000E000200099081800906868D0
:10131000A16803F015FB029A12188242029201D2D0
:10132000012000E00020019A0B18D2180028019239
:1013300002D08A4202D903E08A4201D2012000E0B1
:101340000020009908180090286821684000490092
:10135000400849084018FA49471814E0019940002C
:10136000C90F08430090019802994000C90F084333
:101370000190029803994000C90F08430290039816
:1013800040007F1E039000980028E7DA08980028A4
:1013900001D0EC4E00E00026B74201DA012000E067
:1013A0000020002804902AD0F71BF806C00E15D0A4
:1013B000029B2021091A039A8B401A430392029A36
:1013C000019BC2408B401A430292019A009BC2408B
:1013D0008B4000991A430192C14000917B110DD0BE
:1013E0006F460320C11A03D500218200B95003E0E3
:1013F0008A008100BA587A50401EF3D537460398C8
:101400000299002800D00120014308980291002889
:1014100008460CD0002800D001200199019A490506
:1014200008430121D20AC902D202019200E001213F
:101430000E9B0122D207012B02D0002B03D013E018
:10144000002807D120E0904204D890420CD1019BA3
:101450000B4209D0019B5918019105D10099491CF3
:10146000009101D17F1C009200280DD01021084668
:101470000020C0460498002806D00F98002803D00A
:10148000082108460020C04628682168019B009A70
:101490004840C10F0598C90739430EC009B0F0BDD7
:1014A000FFB587B0099A0898089953689268406810
:1014B000896896460022039317469446089A126854
:1014C0005300099A5B081268520052089A1A9E4B00
:1014D000D4180A9A002A01D0352200E04022069250
:1014E0000022012315460492DB07059324E0002D1A
:1014F00005D175460346039E4D1BB34109D375467E
:101500006646039B491B049D9841059B7519AC4693
:101510005F4163463B4308D0059B049EDD07760888
:101520002E435B080496059301E0521E641EC50F0E
:10153000ED0749184041521C069B9A42D7DB002D0B
:1015400004D17546039A6B1A824101D203200CE044
:10155000039A0B466B404240134303D0014303D030
:10156000012002E0022000E00020614601910021FC
:10157000009702910A99002905D061464002014373
:10158000704B019102E08007002302909C4201DA37
:10159000012000E0002007003AD01A1BD006C00E40
:1015A00015D0029D2021019C091AC5408C4025437D
:1015B000029C8C4000D001242543019C0295009D93
:1015C000C4408D4000992C430194C14000915411B6
:1015D0001DD06D460221002202290CD10320001BE0
:1015E00007E0002804DB8600AE59002E00D001225F
:1015F000401C0328F5DB081B02D588002A5004E0B4
:101600008000285810438A00A850491EE3D51C4684
:101610000A98002802980CD0002800D001200199D7
:10162000019A490508430121D20AC902D202019256
:1016300000E00121109B0122D207012B02D0002BD8
:1016400003D013E0002807D11FE0904204D8904255
:101650000CD1019B0B4209D0019B5918019105D176
:101660000099491C009101D1641C009200280CD003
:10167000102108460020C046002F06D011980028EF
:1016800003D0082108460020C04608980999019A0D
:10169000009B006809684840C10F0798C9072143AB
:1016A00082600AC00BB0F0BD00B585B00193009216
:1016B0000A460146002302A8FFF7FCFD02A807C85E
:1016C00005B000BDFFB50A461F4685B007990193D6
:1016D00001230091014602A8FFF7ECFD029903984F
:1016E000049ECA0F4900D20700920F2249089202B5
:1016F0008C1A0021002800DB0C46450013486D08B9
:10170000844214D3079A002A04DA441E0026104D9E
:10171000F64302E004460D460E461021084600201E
:10172000C046002F03D0042108460020C0462005F3
:10173000E90A0843009908436905F20A1143ADE636
:1017400002C0FFFF013C0000FF3F0000FF07000058
:10175000FFFFFF7F00B585B0019300920A46014666
:10176000002302A8FFF79CFE02A807C8A8E7FFB560
:101770000A461F4685B0079901930123009101464F
:1017800002A8FFF78DFE02990398049ECA0F490034
:10179000D20700920F22490892028C1A00210028D9
:1017A00000DB0C46450011486D08844214D3079AAB
:1017B000002A04DA441E00260D4DF64302E00446DA
:1017C0000D460E46102108460020C046002F03D0CB
:1017D000042108460020C0462005E90A0843009974
:1017E00008436905F20A114358E60000FF070000AC
:1017F000FFFFFF7F01468008081A02091018020A3D
:101800001018020C1018C008820012185200891A11
:1018100001E0401C0A390A29FBD2704710B5FF23AA
:101820001B0644009C421DD84C009C421AD803461B
:10183000124A0B4307D4401A02D3EFF3008010BDC5
:10184000EFF3008010BD081A03D3EFF3008090433C
:1018500005E0EFF3008001219043C907084380F3BE
:10186000008810BD0D231B041A4204D0114600202D
:1018700000F08AF810BD00F09FF810BD0000009045
:1018800000487047180000207546FFF7F9FFAE4684
:10189000050069465346C008C000854618B020B50B
:1018A000FEF788FC60BCB64600260027C0C5C0C550
:1018B000C0C5C0C5C0C5C0C5C0C5C0C5403D49083C
:1018C00049008D46704710B50446C046C0462046C4
:1018D000FEF75FFC10BD000082078B079A423FD1E4
:1018E00070B5920F0AD0032402780B78401C491C73
:1018F000002A33D09A4231D12042F5D1214EF40151
:1019000004C808C9951B9543254018D19A420FD1A8
:1019100004C808C9951B9543254010D19A4207D1A8
:1019200004C808C9951B9543254008D19A42E7D0C1
:1019300012BA1BBA01209A4200D2404270BD12BABC
:101940001BBA2DBA18241000E0401900E140401ADB
:1019500005D12E00E64002D1083CF4D1D01A70BD6A
:1019600002780B78401C491C002A09D09A4207D102
:1019700002780B78401C491C002A01D09A42EFD013
:10198000D01A704701010101C80212D54803400F67
:10199000002804D0C803C043012188407047EFF3FA
:1019A00000800001000903210907084380F3008833
:1019B000704700207047000010B5024800F004F89E
:1019C00010BD00000000C07F10B50C461107090FC4
:1019D000092904D00A290AD008290CD104E01146AB
:1019E0000820FFF7D1FF06E0510606D501E05106B9
:1019F00001D50120C007214610BDD10607D5010140
:101A00000909CC084907000E0006044309E0410F0C
:101A100020024907000A0143200E00061D22D14181
:101A200001430846E7E7000001491820ABBEFEE786
:101A30002600020070470000F0B581B0002002F0DF
:101A40009BFB194804681949204602F0A7FF0028AB
:101A500001D017A409E02046FEF7D0FF02460B464E
:101A6000164C17A12046FEF73FFC00260125304604
:101A7000294602F077FD154F06CF15A02B46083FEB
:101A800002F044FE1621304602F06CFD06CF2046DF
:101A90002B4602F03BFE114802F06AFD0A2000F0DE
:101AA0001FF801B0F0BDC0467C000020000070426D
:101AB00052504D203E20363000000000E805002046
:101AC00052504D3A25302E316600000000000020B3
:101AD0004170732E2F6D696E00000000CC04002051
:101AE000B0B5044600F0D6F80546601C02D00448A4
:101AF0000078041900F0CEF8401BA042FAD3B0BD24
:101B00000C000020F0B588B004900B68002B00D1C9
:101B1000ADE00E4657480499814201D0062000E00E
:101B200005200B210907049A52180A21CA41019283
:101B3000052A00D301900498203000900024254607
:101B40002746194607960CE010434B4908607F1C56
:101B5000079E31680846F840241DAD1C002800D1BE
:101B600085E001221046B8400140F0D00292039176
:101B70000799496803220B4613405E1E012E069406
:101B8000059212D81646AE40049A9468B443079E54
:101B9000F668AE4026439660C906C90FB94054683E
:101BA00084430C435460059A069C032B079E1AD06D
:101BB0001046A840049AD1688143B068A840084301
:101BC000D060059A022B0ED11C2020400F218140AD
:101BD000FB089B00009AD4588C4331698140214313
:101BE000069CD150059A1046A84033461646049AE2
:101BF00011688143586883033040A840084310604F
:101C0000980F039A029BA2D01C49086818430860E9
:101C10000C2020400F2181403B46B343184E9C5975
:101C20008C43019981402143995113488068079959
:101C30004B68D90201D5104300E090430E498860FB
:101C4000C8689902069C01D5104300E090430A49F8
:101C5000C8604868990301D5104300E090430649E5
:101C600048600868D90300D56EE790436DE708B077
:101C7000F0BDC046001C005000040140341002407A
:101C800008000140002A02D0182281507047282203
:101C900081507047014800687047C0461006002018
:101CA000B0B50246034640335C780220202C17D1A1
:101CB0001C78012C14D0242058701068026801246C
:101CC000A2430260220305689543056002680A4347
:101CD00002600168214301600020187020215970C2
:101CE000B0BDB0B50246034640335C780220202CDC
:101CF00017D11C78012C14D0242058701068026869
:101D00000124A24302600F221202056895430902D2
:101D100029430160016821430160002018702021DF
:101D20005970B0BDF0B581B0002821D005464035CE
:101D30006978002905D100212970044600F0CAF90C
:101D40002046242169700121CB43026814681C409D
:101D500014600F231B0644689C43146194681B4B5A
:101D60001C409460C468012C05D02126B60203E013
:101D7000012001B0F0BDCE03876837439760A41EF1
:101D800066426641F402CE025768B7433C1954607C
:101D900054680F4E26435660D4681C40D4600369D3
:101DA00044691C4383691B022343D360C369046AEB
:101DB0001C43146013680B4313600021416420220C
:101DC0006A7001630846A97001B0F0BDFF7FFFFF94
:101DD00000800002F0B587B00446064640367578AC
:101DE0000220202D09D10C9F002F08D00D9D002D21
:101DF00005D005953578012D06D107B0F0BD01203D
:101E00004102616407B0F0BD029300920691012087
:101E1000049003963070FFF73DFF05462068806907
:101E200000043AD40E9E2120039948704020887007
:101E300000200190606405986085A04806990140E3
:101E40000298C0B200040691401821684A689C4B71
:101E50001340C0189B4A801848606762019860630D
:101E6000886906E020688069800700D416E1206850
:101E70008069800733D4204631462A4601F036FC7B
:101E8000002800D013E1701CF1D0FFF703FF002EF3
:101E9000E8D0401BB042EAD9E4E70498C60303E067
:101EA000206880693042BDD0192120462A4601F0C1
:101EB0001DFC002800D0FDE0FFF7ECFE401B1A28B7
:101EC000EED3206880693042EAD0606C202108435C
:101ED0006064039A5170002010709070EAE02068EE
:101EE0000299012903D10099C9B2816228E00099C1
:101EF000090A816205E020688069800700D4CDE08E
:101F000020688069800711D4204631462A4601F0B6
:101F1000EDFB002800D0CAE0701CF1D0FFF7BAFE3C
:101F2000002EE8D0401BB042EAD9E4E721680098CF
:101F3000C0B2886204E020688069000600D4ADE089
:101F400020688069000611D4204631462A4601F0F7
:101F5000CDFB002800D0AAE0701CF1D0FFF79AFE5C
:101F6000002EE8D0401BB042EAD9E4E7608D000AB9
:101F7000554F069807D0FF212185226851683940C6
:101F8000121D524B0AE0618D2185226853683B4047
:101F9000C9B20904194301235B06121D1943014309
:101FA00011604A4F03E02068806980078DD5206862
:101FB0008069800710D4204631462A4601F096FBFE
:101FC000002877D1701CF2D0FFF764FE002EEAD013
:101FD000401BB042EBD9E6E72068616A0A7882626A
:101FE000628D521E6285491C6162218D491E2185C8
:101FF000628D002A38D0090406D035E02068806957
:10200000000600D461E720688069000610D42046ED
:1020100031462A4601F06AFB00284BD1701CF2D0F1
:10202000FFF738FE002EE9D0401BB042EBD9E5E7C0
:10203000608D000A08D0FF20208521684868224A68
:102040001040091D3A460BE0608D208521684A68E2
:102050001D4B1A40C0B20004104301225206091D54
:10206000069B104318430860608D00289FD12046CE
:1020700031462A4601F0D6FB00280498039D00D083
:10208000BBE620682021C1614268114B13404360C8
:10209000697001982870A87007B0F0BD606C2021AD
:1020A000084360640398417001990170817003983E
:1020B00001990170049807B0F0BDC046FF0300000D
:1020C000009800FC00200001009C00FC0000FF01C3
:1020D00000E800FE10B586B000210591049103913F
:1020E000029101910068104A904201D006B010BDE3
:1020F0000E4C20680422104320602068104000909D
:102100000720059003200490039112210291019071
:102110000098074801A9FFF7F5FC01208007E16856
:102120000143E16006B010BD007800402C10024071
:10213000000800501D48007802490A68101808601D
:102140007047C0461006002010B5084801684022BC
:102150000A4302600024204600F00AF8002801D05B
:10216000012010BD00F028F8204610BD00200240DC
:10217000B0B504467D20C0000C49097802F0E5FAAC
:1021800001460B48006802F0E0FA00F063FD01250B
:10219000032C09D8002807D10025E84321462A4608
:1021A00000F022F8034804602846B0BD0C0000206F
:1021B000080000201000002004480168012211439B
:1021C0000160110742680A434260704734100240C0
:1021D000002805D41F2108400121814001480160E9
:1021E0007047C04600E100E0002805D40322034602
:1021F00093430A4A9A1803E00C220240064BD21875
:102200008007C00E8901C9B28140FF238340106856
:10221000984308431060704714ED00E000E400E0CC
:10222000F0B589B001252F020268EB021946203172
:102230007F4C0A4200D19EE0079308902907143C86
:1022400020680840069002D120680843206001946D
:102250000291784C206838420FD1206838432060C2
:10226000FFF718FD06462068384206D1FFF712FD39
:10227000801B6428F7D903259BE0049703273E05BC
:102280006B4C20464C38059001683140089B5868DB
:1022900002460396324000973E04914209D102461D
:1022A0003240B2420DD19A68039B1A40914204D148
:1022B00007E001463140B14203D10599096889031D
:1022C00077D461683140049F1FD03040814203D0F1
:1022D00008980078800609D40898806830408142C8
:1022E00013D008980068079908420ED0504B5868E0
:1022F000E9045A680A435A605A688A435A60014698
:10230000B1435960384200D082E0089805680799C7
:102310000D42474C12D0826811463140B1420AD179
:102320000398024003231B05059804689C4314434B
:1023300004603F4C089862680A436260A90612D59F
:1023400041680C463440B44208D1039A114003223C
:102350001205059D2B6893430B432B60344A51684B
:102360002143144651600699002904D1019B196844
:10237000029A914319600368D9071DD1990723D4A4
:10238000590729D4190730D43B4237D1590606D50D
:102390000121890622688A43416A11432160002590
:1023A000190606D503218A0421689143006A08436F
:1023B0002060284609B0F0BD216803229143C2681D
:1023C0000A4322609907DBD521680C2291430269F8
:1023D0000A4322605907D5D50321890222688A431E
:1023E0004169114321601907CED5032109032268F1
:1023F0008A438169114321603B42C7D0032109040C
:1024000022688A43C169114321605906C0D4C6E7D6
:10241000FFF740FC0546864C05484068800500D51E
:1024200073E7FFF737FC401BA042F5D9009DC0E7DA
:102430004C10024000700040F0B583B0002844D03A
:102440000E46029079480068012101910840B0428F
:1024500014D2764908680125A84330430860744CBB
:10246000FFF718FC0746714800682840B04205D0C5
:10247000FFF710FCC01BA042F5D923E0029D28689D
:102480008107794C05D52168F0229143AA680A4357
:102490002260C0071CD16548006801273840B0425F
:1024A00024D962490868B8430860614CFFF7F2FB21
:1024B00005465E480068C00718D0FFF7EBFB401BDD
:1024C000A042F6D9032003B0F0BD012003B0F0BD57
:1024D0006A6821460C390968012A34D0032A2DD0B4
:1024E000022A72D1890301982BD52FE0029B18682C
:1024F00041075D4C06D50721090222688A43D96845
:1025000011432160000707D50720C00221688143DD
:102510001869C0000843206021680807820F6C48D2
:102520007A441279520097440154735B380421466F
:10253000083909680904490F884069E08901019850
:1025400004D403B0F0BD49070198FAD521680320EF
:102550000190814311432160FFF79CFB07466868A7
:10256000334D03282BD002281ED001280AD1206821
:102570000C21014004298ED0FFF78CFBC01BA84220
:10258000F5D909E020680007800F00D183E7FFF745
:1025900081FBC01BA842F5D9019803B0F0BDFFF73D
:1025A00079FBC01BA842F7D820680C2101400829FC
:1025B000F5D170E7FFF76EFBC01BA842ECD820688E
:1025C0000C2101400C29F5D165E789050198B8D5A2
:1025D000BCE720460C380068C00612D53F4817E01B
:1025E0008A02120F3B4B9A5C0902890F491C23682F
:1025F000DB0309D420460C380068C00603D53748F1
:1026000002E0354804E034484243104602F09DF8A9
:1026100021680906090F074A515CC8401149086042
:1026200005480068FFF7A4FD03B0F0BD002002409C
:1026300088130000444D000810000020094800687D
:10264000094909684905490F084A515CC840704763
:1026500004480068044909688904490F034A515C29
:10266000C8407047080000200C100240544D00087C
:1026700010B5834BD9680807820F15487A44127940
:10268000520097440108070D01200004596809040D
:10269000490F884010BD1868C00610D50F4810BDFE
:1026A0008A02120F0B4CA25C0902890F491CDC68DC
:1026B000E40307D41868C00603D5084802E00648BA
:1026C00010BD05484243104602F03FF810BDC04619
:1026D00000127A00B85A00080024F40000093D00F6
:1026E000F0B589B0002858D0654EF1680C220A4038
:1026F0000692012105910904F76804910F400790A3
:102700000078C00712D0059844040698082806D01F
:1027100006980C2800D0D5E0002F00D1D2E0306818
:10272000204203D007984068002852D007980078CC
:10273000800735D407980078C0064DD407980078F4
:10274000000765D407990878400700D59AE0087813
:10275000800600D518E10798846A002C1AD00698E4
:102760000C2800D061E1012C33D0F068049A0240BB
:10277000079BD96A8A422CD10F21890401401A6B28
:10278000914226D1032189050840596B884205985A
:1027900000D049E2002009B0F0BD012009B0F0BD31
:1027A000079BD868810604D5316820221143316027
:1027B00090430699042906D006990C2900D0A2E07E
:1027C000002F00D09FE03168002838D1042211404A
:1027D00035D0059809B0F0BD0120440206990029C2
:1027E00000D1A6E03168079AD2690002002A00D120
:1027F000FAE001433160FFF74DFA054630682042A8
:1028000000D001E1FFF746FA401B0228F6D913E099
:10281000306D07994969002900D1D4E001210843AE
:102820003065FFF737FA0546306D80078AD4FFF729
:1028300031FA401B0228F7D9032009B0F0BD1F214F
:10284000090272688A43196909021143716031688B
:102850000922914301433160F1680807820FF34870
:102860005200C0467A4492885200974403002E01D9
:10287000CE01440170680004410F04988840C4E10F
:102880000010024001221107B06B0840019002D1F4
:10289000B06B0843B063009103921702EA4C2068C2
:1028A000C0051ED4206838432060FFF7F3F90546C1
:1028B0002068384215D1FFF7EDF9411B0320642948
:1028C000F6D9B1E1306807994A68052109048A42BE
:1028D000039200D1CAE004998A4200D0CEE00843B6
:1028E000D6E0306D07998B68002B029300D138E158
:1028F000052109028B42039A00D12CE1BB4200D092
:1029000033E1384336E13168002800D1E2E00922A2
:10291000914301433160FFF7BDF905463068400738
:1029200000D50EE1FFF7B6F9411B03200229F5D9C6
:102930007AE13168214204D00799C969002900D1A0
:1029400072E10720400371688143079B586A014385
:102950007160FF21090672688A43196A090689189D
:102960007160400B04998140F0680006000FB34A83
:10297000105CC140B2480160B2480068FFF7F8FB44
:10298000002800D050E1D9E6B0680799896900298C
:1029900000D1C0E001210843B060706B0843706350
:1029A0004803AB490A6802430A60FFF773F905461A
:1029B000B068800700D5CEE6FFF76CF9411B032015
:1029C0000229F5D930E1012188433065FFF762F92A
:1029D0000546306D800700D4B4E6FFF75BF9411B74
:1029E00003200229F5D91FE181433160FFF752F935
:1029F00005463068204200D1A0E6FFF74BF9411BA5
:102A000003200229F5D90FE10720400371688143B3
:102A1000079A506A08437060FF200006716881437E
:102A2000106A00064018706088E6012001063268CE
:102A30008A4332604706FFF72DF90546022C0AD17A
:102A40003068384200D1BDE0FFF724F9411B032074
:102A50000229F5D9E8E03068384200D19AE6FFF75C
:102A600019F9411B03200229F5D9DDE005998904F4
:102A70000843306030680499084309E088433060B7
:102A800030680840089008980598810430688843A9
:102A90003060FFF7FFF805460398002811D0306832
:102AA000204200D042E6FFF7F5F8411B03206429DD
:102AB000F5D9B9E0FFF7EEF8411B0320642900D9EE
:102AC000B2E030682042F5D130E63068C00677D5F4
:102AD00059489AE0012081433160FFF7DBF8054651
:102AE0003068400700D425E6FFF7D4F8411B0320E7
:102AF0000229F5D998E08A02120F4D4B9A5C09021F
:102B0000890F491CF368049C23427AD13068C006BF
:102B100076D5494875E001218843B06048034C49A7
:102B20000A6882430A60FFF7B5F80546B068800777
:102B300000D410E6FFF7AEF8411B03200229F5D9B7
:102B400072E01F200002716881430798006900024B
:102B500008437060EEE5910208433065306D3843FC
:102B600008E0B8433065039A01E0B843306591024C
:102B7000306D884330655702344CFFF78BF80546BB
:102B8000029800280FD0306D38420FD1FFF782F83D
:102B9000411B0320A142F6D946E0FFF77BF8411B19
:102BA0000320A14240D8306D3842F6D10198002868
:102BB000079900D0CBE5B06B009A9043B063C6E5AF
:102BC0001C4822E0FD200004F1688143079B2C3360
:102BD0000DCB084310431843F0602848401C31686F
:102BE00001433160FFF756F804463068384200D0A0
:102BF000D0E5FFF74FF8011B03200229F5D913E0B8
:102C00000C484243104601F0A0FDF1680906090F87
:102C10000A4A515CC8400A4908600A480068FFF740
:102C2000A7FA002800D185E509B0F0BD00127A00AE
:102C3000B85A00080024F40000093D00444D000883
:102C400008000020100000200070004088130000E1
:102C500020000140401E010E01D0012070470749AD
:102C6000074A5060074803680B4003218907591839
:102C7000016000209060072111607047FFFFFF0096
:102C800010E000E020ED00E0B0B53822825C012ABF
:102C900001D10220B0BD0246383202235370012315
:102CA0001370006844687025AC430D682543846840
:102CB0004560674DA84206DC9D07A84209D0674DD4
:102CC000A84206D00AE0634DA84202D0624DA84255
:102CD00004D18025AC4349682143816000201070F5
:102CE0005370B0BDB0B5002819D0054638356978A5
:102CF000002905D100212970044600F04DF8204636
:102D00000221697001680C68514B994209DC01226B
:102D1000920791420BD0514A914208D015E0012010
:102D2000B0BD4C4A914202D04B4A91420DD1702223
:102D300094438268224399420ADC01239B0799420B
:102D40000CD0464B994209D024E022469942F4DD4A
:102D5000404B994202D0404B99421BD103231B02A6
:102D60009A4303691343C268CA6242688A620A6866
:102D7000042414430C6001224A618024A343406967
:102D800018430860AA71AA70EA702A716A716A70A1
:102D90000020B0BD1346E6E7B0B586B00024059428
:102DA000049403940294019401218A0700689042DC
:102DB00001D006B0B0BD01910F48C2680A43C2609D
:102DC00002680A43026000680840009002200590F3
:102DD00004940394029000980520000701A9FEF7CF
:102DE00091FE0F25284621462246FFF7FDF9284689
:102DF000FFF7EEF906B0B0BD2C1002403921415C5E
:102E0000012912D10146393102220A700068C268D4
:102E100001210A43C260F44A904208DC8A079042CA
:102E20000BD0F44A904208D00CE001207047EF4AE2
:102E3000904202D0EE4A904204D1826807231340A8
:102E4000062B02D002680A43026000207047C04689
:102E5000FF07014000140140000801400004004049
:102E6000F0B581B03822825C012A02D1022001B083
:102E7000F0BD0246383202235370012313704C4FC9
:102E80003C46773C0568A8682040A8600E6800248E
:102E90004F2E1FDC1F2E35DD202E37D0302E35D0A3
:102EA000402E00D082E0286A2E6A0127BE432E629F
:102EB000AE69F027BE43CF683F013743AF610A26B2
:102EC000B043496801432962A86847210143302083
:102ED000814365E06F2E21DD5803864253D01803ED
:102EE000864220465ED0702E60D1A86838404E6879
:102EF0008F68C9683743090239430143A960A8684C
:102F000077214CE0002E01D0102E4FD1A8687021FF
:102F10008843064307203043A86042E0502E1CD06F
:102F2000602E43D12E6A1020C04300902F6A0740C4
:102F30002F620F273F03A869B843CF683F030743B9
:102F4000AF61A02086434868000130432862A8682A
:102F5000672101430098014022E0286A2E6A9E43BF
:102F60002E62AE69F027BE43CF683F013743AF61A1
:102F70000A26B043496801432962A86857210143E2
:102F8000202081430CE0A86838404E688F68C968EB
:102F90003743090239430143A9609803A9680143F3
:102FA000A96020461470537001B0F0BD1846F9E7CF
:102FB000FF00FFFFB0B5204D287801280CD0002875
:102FC00039D12048002101801C480068FDF734FEFB
:102FD0001E49086001202DE018480068FDF72CFE0E
:102FE0000446174804601748018817484843FDF70E
:102FF0001BFE0146204601F0F9FC1449096801F066
:10300000BDFDFDF7D5FD12490860FDF7D0FB114A63
:10301000114BFDF7CFFBFDF763FB01460F48016045
:103020000F48FDF715FD7D21C90501F04FFD0D4944
:10303000086000202870B0BD0C060020240000406D
:103040008C04002090040020FFFF00008804002072
:10305000080600208DEDB5A0F7C6603E7800002080
:10306000000070427C000020F0B582B03823C35CC1
:10307000012B01D10223B1E004463834012323702F
:103080000225EA41032A00D9A6E0C0467A44127913
:1030900052009744015C15360268136A156A0120D4
:1030A00085431562CD68019560C900969769B04E59
:1030B0000839B2426FDC8607B24272D0AF4E6EE082
:1030C0000068026A01231B02056A9D4305624B6882
:1030D000F025AB43CD682D01EDB2EB18C569F326A1
:1030E000B5431D43C56105235B020D682D021D40DC
:1030F0009A4352190262C2690C239A43C2618968D9
:1031000023E00068026A01231B03056A9D430562F0
:103110004B681B02334D1D40CB681B039BB25B19F0
:10312000F3252D02C669AE431E43C66105235B032A
:103130000D682D031D409A43521902620322920228
:10314000C3699343C361896809021C3040E0006889
:10315000026A036A1025AB4303624B681B02214DD0
:103160001D40CB681B039BB25B19F3252D028669BA
:10317000AE431E4386610B681B01A0252B40AA436A
:10318000D2180262032292028369934383618968A1
:10319000090218301CE0774EB24202D0764EB2429D
:1031A00002D1032087430098074310461830F026C9
:1031B000B743019E3601F6B2BE1996610A26354024
:1031C000B3435B19136293690C25AB439361896820
:1031D00002680A430260002300202070184602B0F3
:1031E000F0BDC046000FFFFFFF0701400014014083
:1031F0000008014000040040B0B5002819D0054681
:1032000038356978002905D100212970044600F07D
:103210004DF820460221697001680C68544B9942B0
:1032200009DC0122920791420BD0544A914208D006
:1032300015E00120B0BD4F4A914202D04E4A914262
:103240000DD1702294438268224399420ADC012303
:103250009B0799420CD0494B994209D024E0224661
:103260009942F4DD434B994202D0434B99421BD122
:1032700003231B029A4303691343C268CA6242686C
:103280008A620A68042414430C6001224A61802483
:10329000A343406918430860AA71AA70EA702A71B2
:1032A0006A716A700020B0BD1346E6E770470000FF
:1032B000B0B5082903D03D22042903D003E03C2205
:1032C000042900D13B22002900D13A22825C012A44
:1032D0000AD102463A320223002907D0082907D032
:1032E000042907D1537006E00120B0BD137002E03D
:1032F000937000E0D37002220B46D341032B0BD80E
:103300009A001A4CA2580468E5681543E56000224B
:10331000032B04D91046B0BD0122032BFAD81F237A
:10332000194001231C468C400068016AA1430162D8
:10333000016A214301620E49884206DC99078842EE
:1033400009D00E49884206D00AE00A49884202D0D4
:103350000949884204D1816807240C40062CD9D041
:103360000168194301601046B0BDC046C45A000848
:10337000FF07014000140140000801400004004024
:10338000F0B585B004460068C56802272946394073
:103390004A424A410169049139404B424B4113432F
:1033A00040210291C9430391002B13D103993E316F
:1033B0000161012121768069800703D02046FFF753
:1033C000F9FD05E0204600F094F8204600F092F860
:1033D0000020207601260422294611404842484117
:1033E00004994907314600D50146032000020190A7
:1033F000002916D10092206803993C31016127769B
:1034000080690199084203D02046FFF7D3FD05E00B
:10341000204600F06EF8204600F06CF80020207680
:10342000009A08272946394048424841049909072B
:10343000314600D50146002913D12068039938315F
:1034400001612276C069800703D02046FFF7B2FDF4
:1034500005E0204600F04DF8204600F04BF8002033
:10346000207610212940484248410499C906314636
:1034700000D50146002914D120680399303101613B
:103480002776C0690199084203D02046FFF792FDD4
:1034900005E0204600F02DF8204600F02BF8002033
:1034A000207601212940484248410499C907314604
:1034B00000D00146002906D1206803993F310161FF
:1034C000204600F019F802980540684268410499C6
:1034D000490603D4002E04D005B0F0BD0646002EE8
:1034E000FAD1206803990161204600F00DF805B07B
:1034F000F0BD70477047000002480188491C0180F8
:103500007047C0469004002070478421405870479F
:10351000B0B500281DD00446C06F002805D1782022
:1035200000212154204600F02BF82420E067206879
:1035300001680125A9430160606A002802D0204685
:1035400000F012FA204600F0DBFA002803D02846EB
:10355000B0BD0120B0BD0920C00221684A68824385
:103560004A6088682A2290438860086801220243E2
:103570000A60204600F062FA05462846B0BD000009
:1035800010B586B00021059104910391029101913B
:103590000068114A904201D006B010BD01204204DB
:1035A0000E4BDC681443DC601A6802431A601A6828
:1035B0000240009204200590032004900391022011
:1035C00002900C20019005200007009901A9FEF748
:1035D00099FA06B010BDC046004400402C100240CD
:1035E000F0B583B00446C06F202811D10120002916
:1035F0000CD0002A0AD01D4601200603A368B3425E
:1036000009D1CB0707D02369002B04D103B0F0BD4B
:10361000022003B0F0BD0091274650372046843089
:103620000021019101602120E0670292FEF732FB48
:1036300031460646029878803880A068884202D1D8
:103640002069002802D00098029010E0002002902B
:10365000009801900BE0029800281DD002460078E7
:1036600021688862521C02927888401E788078888F
:1036700000281CD02068C0690006ECD4681CF9D072
:10368000FEF708FB01460320002D27D0891BA94225
:1036900024D820680068EDE7019A10881149084095
:1036A00021688862921C019200200290DCE7206869
:1036B000C069002701E02068C06940060DD4681C7D
:1036C000F9D0FEF7E7FA01460320002D06D0891B4A
:1036D000A94203D820680068EDE738462021E16759
:1036E00003B0F0BDFF010000FEE70000F0B587B0B9
:1036F000174604464030059020688269D20602D4FD
:103700000027384650E006911021C1612668B16952
:10371000012089063BD4019001200290800304908F
:10372000002503950CE02020039901430391029D9D
:10373000694269412668B269202313402B432BD18B
:10374000069E701CF4D0FEF7A5FA002E02D0C01B16
:10375000B042EDD9206842680599897883691B04D5
:103760000BD5049B1A4008D1202906D04168049A41
:1037700011434160FEF78EFA074620688069800693
:10378000D6D4FEF787FAC01B1A28F6D3CBE7042756
:103790000146002906D107E00422039F1743019840
:1037A000002901D02021F16101222568A969CB05FA
:1037B00007D44B050BD4890510D4002815D107B0C8
:1037C000F0BD1302EB61174310464B05F3D592028F
:1037D000EA610822174301208905EED50120410244
:1037E000E96102210F430028E9D0A969890701D5C1
:1037F0000021A962A969C90703D1A96901220A4365
:10380000AA616968064A0A406A60616C394361646A
:10381000202205994A7000220A708A7007B0F0BD14
:1038200000E800FEF0B583B0044600688069002718
:10383000800629D415460E46029720464030019056
:1038400007E020688069800615D5206880698006B9
:103850000FD4204631462A46FFF748FF01270028AB
:1038600012D1FEF717FA002EEBD0401BB042ECD974
:10387000E7E7029F08E0606C202108436064019A3A
:103880005170002010709070384603B0F0BDFEE714
:103890007047704780B5FEF74DFC04480168491C2D
:1038A000016003480168491C016080BDC404002018
:1038B000C804002070B59EB010AC38212046FCF73B
:1038C0000CFE00250F950E950D950C950B9501A8F6
:1038D0002821FCF702FE0326F0021D490A688243F4
:1038E00001201090C302D2180A6002211A91C1056A
:1038F0001D9101051C9100041B9011902046FEF7BC
:10390000EFFE002803D0EFF3108072B6FEE70F95AC
:103910000E950D950C960F200B900BA80121FEF72C
:103920008BFD002803D0EFF3108072B6FEE70895F8
:10393000059581204000019001A8FEF771FC002848
:1039400003D0EFF3108072B6FEE71EB070BDC04624
:10395000007000407047000080B50248FFF710FD7E
:1039600080BDC04620050020B0B5416A0A070CD4CE
:10397000CA0714D18A071CD44A0724D4CA062CD4F7
:103980008A0634D44A063CD44CE00122D2030368B0
:103990005C689443426B22435A60CA07EAD0012212
:1039A000520403685C689443826A22435A608A071F
:1039B000E2D50122120403685C689443C26A224380
:1039C0005A604A07DAD50122920403685C6894437E
:1039D000026B22435A60CA06D2D501221203036841
:1039E0009C689443826B22439A608A06CAD501225E
:1039F000520303689C689443C26B22439A604A0650
:103A000010D501221305026854689C43056C2C43B1
:103A100054609D4206D103235B0554689C43436C6C
:103A200023435360090607D50121C904026853687E
:103A30008B43806C18435060B0BD0000F0B583B07C
:103A40000446064678360027F760FEF723F903465A
:103A50002068006800071ED52848009001200290C9
:103A60004105002220463D461F4600F079F93B46BD
:103A70002F4600280FD0EFF31080029981F31088B1
:103A800021680A6880239A430A6080F31088032023
:103A900020227C212EE020680068400723D51748AB
:103AA00000900125A9050022204600F059F90028C0
:103AB00019D0EFF3108085F310880921490122689D
:103AC00013688B43136080F31088EFF3108085F345
:103AD000108821688A68AA438A6080F310880320CE
:103AE0002022802106E02020E067B0602766642164
:103AF0003A4638466250377003B0F0BDFFFFFF0111
:103B0000F0B581B0044601680868834A0240A068A5
:103B100023690343606918431043E2691043086056
:103B2000032738034B688343E06818434860A5695E
:103B30007A4B994202D0206A284300E028460B25A0
:103B40002D028E68AE4306438E607548814210DDBB
:103B50000026744881421DD0734881421AD07348B0
:103B6000814216D17348C06C8007000F73A52E5890
:103B700010E06F48814205D099420AD16D48C06C6F
:103B8000000A01E06B48C06C0C2505406A484659A4
:103B900000E010260125E803994214D0824225D185
:103BA000082E00D95CE000277E4436797600B744C1
:103BB00004616B577B5757577D00FEF73FFD002888
:103BC00000D075E094E0082E2FD800210091C04667
:103BD0007E4436797600B74404281B2823282828F9
:103BE0002B00FEF72BFD002824D186E0082E3CD8C0
:103BF0000027C0467E4436797600B74404404D36EF
:103C0000693636366B00FEF719FD002864D16FE087
:103C100048480068C0066DD54D4800280AD16CE0C0
:103C2000FEF726FD002805D167E000200121009164
:103C3000002862D062685743B8425FD311038842BC
:103C40005CD8010E56080002002380195941FCF788
:103C5000C3FA41494118414A9142009F46D34DE081
:103C600000200127002823D142E00020012700285E
:103C700032D13DE0FEF7ECFC002819D138E0FEF728
:103C8000E7FC002828D133E02A480068C0063BD56D
:103C90002F4800280CD12BE026480068C00637D5F5
:103CA0002B48002818D123E0FEF7E2FC00281FD0A3
:103CB000400061684A08101800F047FD0246103ABB
:103CC00024498A421AD201400007400F08430DE000
:103CD000FEF7CEFC00280BD061684A08101800F0EF
:103CE00034FD014610391B4A914207D22168C86051
:103CF0003D4603E0154800289CD1009D0020A066A9
:103D0000E066284601B0F0BD10480028D0D1EFE7AA
:103D10000E480028E0D1EBE7F369FFEF00480040D0
:103D2000FF4B0040004C0040005000400038014074
:103D30000044004000100240F45A00080100000056
:103D40000400000002000000080000000024F4004D
:103D500000093D00F0FF000000FDFFFF00FD0F0027
:103D6000F0B585B004930F4604460068C06908406A
:103D7000401A414241410020914200D08DE0164658
:103D800002902046783001900A9D01200090C002E8
:103D9000039007E02068C0693840C01B41424141A0
:103DA000B14245D1681CF5D0FDF774FF01460320F0
:103DB000002D00D171E0049A891AA9426DD82068BB
:103DC00001684907E6D5402FE4D0802FE2D0C169D1
:103DD000090730D4C169039A1142DBD0039901620B
:103DE000EFF31080012282F3108809214901236832
:103DF0001D688D431D6080F31088EFF3108082F3FF
:103E0000108821688B6893438B6080F31088236E41
:103E100003202021012B38D1EFF3108382F3108887
:103E2000226815681026B543156083F310882CE0CE
:103E3000029805B0F0BD08210162EFF31080009EEA
:103E400086F310880922520123681D6895431D607E
:103E500080F31088EFF3108086F31088226893684F
:103E6000B343936080F31088206E01280CD1EFF3E8
:103E70001082012080F3108823681D681026B54346
:103E80001D6082F3108800E030462022019B9A607A
:103E900000222266A2661A70D96005B0F0BD00004B
:103EA0008CB0FEF751F9FFF705FD00260596049644
:103EB0000396029601968D480168802211430160A5
:103EC00001681140069106990168042211430160BE
:103ED0000168114006910699016801273943016084
:103EE000006838400690069805200407FD03204628
:103EF00029463246FDF7C6FE0496039602970195C1
:103F000001A92046FDF7FEFD79487A497A4A026008
:103F1000021DC2C2066146618661C6610662FDF786
:103F200001FF002803D0EFF3108072B6FEE770485F
:103F30000021FDF7B5FE002803D0EFF3108072B624
:103F4000FEE76B4800263146FDF7CBFE002803D084
:103F5000EFF3108072B6FEE768486949BA0744C0BB
:103F6000066041608660C6600496039602960196DC
:103F70000B960A9609960896079606960838FEF755
:103F8000B1FE002803D0EFF3108072B6FEE73803CD
:103F900001905A4801A9FEF763FF002803D0EFF310
:103FA000108072B6FEE75548FFF726F9002803D0C7
:103FB000EFF3108072B6FEE70B960A964F480AA9F7
:103FC000FEF762FE002803D0EFF3108072B6FEE722
:103FD0000996089607970696484806A93246FFF7BD
:103FE00043F8002803D0EFF3108072B6FEE745488F
:103FF0000C21454A06624662E1235B024CC0066022
:1040000046608160C66006610C38FFF781FA0028BF
:1040100003D0EFF3108072B6FEE7384F0026384623
:104020003146FFF745F93846FEF7E8FE304800F024
:10403000AFF80127204629463A46FDF723FE14240F
:104040002046314600F08EFA304D06CD30A03B467A
:10405000083D00F05BFB1E212046344600F082FA4A
:1040600006CD2CA03B4600F051FB214800F080FA21
:104070007D25E800FDF734FD304600F07DF8284E40
:104080003C4F00953068C82828DB25462548046841
:104090002046254900F082FC07462046FCF7AEFC8E
:1040A00002460B46002F01D12CA100E01FA12C4697
:1040B000144F2F4D2846FCF717F92846FCF7C4F992
:1040C000E34382B238462946FFF78AFA0028009D6A
:1040D00002D03846FFF719FA3460264FA800396835
:1040E0008142CFDBFDF7A8FC3C60CBE72C100240FF
:1040F000CC040020B47CB0000078004020050020F3
:10410000FFFF000060050020004400400000002088
:1041100052504D006D61746176696D6173000000ED
:10412000C80400207C000020000070424E657061D1
:1041300069736F6D61732064696170617A6F6E611C
:1041400073212052504D203D20252E316620617074
:10415000732E2F6D696E0D0A0000000025302E3180
:1041600066206170732E2F6D696E0D0A00000000CD
:1041700092040020C404002080B5002801D102462A
:1041800000E0FF2201208102F548FCF77FF980BDA5
:10419000F0B5A3B007466420FDF7A2FC22A8AE212B
:1041A00001700A2101260090019602910C461E9191
:1041B00078210022209238460D463346FDF70AFE4C
:1041C0001D9022A82021199101700090019602945F
:1041D00038463C462F461F952946209D2A463346A1
:1041E000FDF7F8FD1C9022A8102116910170009097
:1041F00001961E980290204639462A463346FDF71E
:10420000E9FD1B9022A8B0210170009001961E9D2F
:104210000295219420463946209A3346FDF7DAFD6F
:104220001A9022A8C821017000900196029520469C
:104230003946209D2A463346FDF7CCFD189022A82A
:1042400005702A46009001961E9C0294219F3846D4
:104250001F9D29463346FDF7BDFD179022A81699EC
:10426000017000900196029438462946209D2A4606
:104270003346FDF7AFFD169022A840210170009053
:104280000196029438461F9F39462A462C463346EB
:10429000FDF7A0FD159022A88121017000900196E4
:1042A0001E980290219839463D4622463346FDF736
:1042B00091FD149022A8FF210170009001961E9C90
:1042C0000294219F38462946209D2A463346FDF711
:1042D00081FD139022A8A121017000900196029403
:1042E00038461F9F39462A463346FDF773FD129024
:1042F00022A8A621017000900196029421983946C7
:104300003C462A463346FDF765FD119022A8A821B8
:104310000170009001961E980290219F3846214618
:104320002A463346FDF756FD109022A83F21017022
:10433000009001961E9C029438461F9F39462A46DB
:104340003346FDF747FD0F9022A8A421017000908D
:1043500001960294219839462A463346FDF73AFDE4
:104360000E9022A8D3210170009001960294219F03
:1043700038461F992A463346FDF72CFD0D9022A89A
:104380002A46057000900196029438463D461F9FCC
:1043900039463346FDF71EFD0C9022A8D521017049
:1043A000009001960294284639463D46209A3346AD
:1043B000FDF710FD0B9022A8F021017000900196EE
:1043C0000294219F38462946209D2A463346FDF710
:1043D00001FD0A9022A8D921017000900196029453
:1043E00038461F9F39462A463346FDF7F3FC0990AD
:1043F00022A822210170009001960294219839464A
:104400002A463346FDF7E6FC089022A8DA2101701F
:10441000009001960294219F38461F9C21462A460F
:104420003346FDF7D7FC079022A8122101700090B7
:1044300001961E9802903846274621462A46334662
:10444000FDF7C8FC069022A8DB21017000900196C0
:104450001E9C0294219839463D46209A3346FDF72A
:10446000B9FC059022A81999017000900196029458
:10447000219F38462946209A3346FDF7ABFC199018
:1044800022A88D210170009001962546029438469D
:104490003C461F9F3946209A3346FDF79BFC04900B
:1044A00022A8142101700090019602952046209CBC
:1044B000394622463346FDF78DFC22A9AF220A7009
:1044C0000091019602951D991C9A51181B9A891802
:1044D0001A9A8918189A8918179A8918169A891891
:1044E000159A8918149A8918139A8918129A891892
:1044F000119A8918109A89180F9A89180E9A891892
:104500000D9A89180C9A89180B9A89180A9A891891
:10451000099A8918089A8918079A8918069A891891
:10452000059A8918199A8918049A89180F182198D8
:104530001F99254622463346FDF74CFCC7420CD155
:10454000012081027048FBF7C8FF219800F010F8A5
:104550006B482E46058069480580304623B0F0BD83
:1045600088000020664A1180644908807047C04670
:10457000F0B58BB007900025634F03950597B020E9
:10458000284308A908700A20069001260091019688
:10459000029078210491079C2046039F3A463346B7
:1045A000FDF718FC09A80770009001960698029084
:1045B0002046049C21463A463346FDF70BFC0AA8E8
:1045C00010210170009001960698029007982146EC
:1045D0003A46059F3346FDF7FDFB64208021009796
:1045E000019102904022079821463346FDF7F2FBE5
:1045F00080376D1C082DC1D10BB0F0BDF0B58FB068
:104600000D9304463D4B1F88CDB2EE1900207F2E3E
:1046100072D801940E923A4B1C88090ACBB20494CA
:1046200019193F2968D80096002B61D00D99481EB2
:10463000814134480078424242410C9251400791F6
:1046400001982038584340000E99081803901F2005
:10465000C00102900020069009970895059305E097
:104660000698401C059B0690984241D0002DF7D03B
:10467000069A500003990C5A0498101802010299E6
:104680000A400E920722024001219140FF220B9125
:104690004A400A92C2B200230AE00E9940181A4E0C
:1046A000315C0A9D2940089D31545B1C9D42D7D046
:1046B000F81880260640C0B221469940090408D562
:1046C0003F2AF2D8002EF0D10D990C9E8E42E4D1F3
:1046D00006E03F2AE9D8002EE7D107990029DCD06F
:1046E0000E994018084E315C0B9F3943099FDBE758
:1046F00002480099018001980FB0F0BD80000020B1
:10470000820000208400002088000020F0B581B0E5
:104710000E46074600780021002813D01C46154697
:104720000091C0B231462A462346FFF767FF014693
:104730003878814207D178787F1C0028F1D1009821
:1047400001B0F0BD084601B0F0BD43088B421AD35A
:10475000002203098B4279D3030A8B425ED3030BF9
:104760008B4242D3030C8B4227D30902FF2212BA99
:10477000030C8B4202D31212090203D0030B8B42AB
:1047800033D31AE0D3E0411A8041401C70470346FE
:104790000B4371D443088B42F5D3002203098B42AB
:1047A00054D3030A8B4239D3030B8B421DD3030C22
:1047B0008B4202D394466EE0090AC30B8B4201D3AD
:1047C000CB03C01A5241830B8B4201D38B03C01A17
:1047D0005241430B8B4201D34B03C01A5241030B8E
:1047E0008B4201D30B03C01A5241C30A8B4201D33F
:1047F000CB02C01A5241830A8B4201D38B02C01AEA
:104800005241430A8B4201D34B02C01A5241030A60
:104810008B4201D30B02C01A5241CDD2C3098B4245
:1048200001D3CB01C01A524183098B4201D38B01C2
:10483000C01A524143098B4201D34B01C01A524165
:1048400003098B4201D30B01C01A5241C3088B42AA
:1048500001D3CB00C01A524183088B4201D38B0095
:10486000C01A524143088B4201D34B00C01A524137
:10487000411A524110007047CA0F00D0494203103C
:1048800000D34042534000229C4603098B422DD363
:10489000030A8B4212D38901FC2212BA030A8B420B
:1048A0000CD3890192118B4208D3890192118B425A
:1048B00004D3890137D0921100E08909C3098B42E2
:1048C00001D3CB01C01A524183098B4201D38B0122
:1048D000C01A524143098B4201D34B01C01A5241C5
:1048E00003098B4201D30B01C01A5241C3088B420A
:1048F00001D3CB00C01A524183088B4201D38B00F5
:10490000C01A5241D9D243088B4201D34B00C01A7E
:104910005241411A00D201465241104663465B1093
:1049200000D34042704763465B1000D3404201B55C
:104930000021004201D0C9430846C046C04602BD1E
:10494000F8B5040C8BB2264682B25E43104658433B
:104950000D0C370C360400218019164679416E4340
:10496000370C36048019264679416E438919F8BD03
:104970004900CA020243100000D004204A0D01D0B1
:1049800001221043044A490D914201D102210843FA
:10499000012800D105207047FF07000010B500F086
:1049A0006BF8EFF300804000800F012800D000205A
:1049B00010BD30380A2801D201207047002070470E
:1049C00010B500290AD00878002807D00548784497
:1049D000FCF782FF002801D0002010BD0248784477
:1049E00010BD0000561100004E11000070B50125E9
:1049F000ED0704004C4020D4441A01D2001B0919D1
:104A0000C60D4B00F2B2FF2A29D01B0E2CD000029B
:104A10000C0228432C43D31ADC40051910D2280A73
:104A200002D3401C6D0611D0761EF6058019FF2AB0
:104A300000DA70BDC00DC00570BD694000F0A4F87B
:104A400001200543C541521C761CE8E764089C40E0
:104A5000C90161408900E7D10124A043E4E71B0EAE
:104A6000440200D0034870BD002AFCD1C00FC0072B
:104A700070BD00BF0000C07F0123DB0502000A43B8
:104A80000DD4DA4203D49A4207D488427047D84200
:104A900014D4D94212D48842704780427047DA4217
:104AA00003D59A42F9D5814270475B004200DA4251
:104AB00004D24A00DA4201D28142704710B5024A5C
:104AC000FCF7ACFE10BD00BF0900130470B5420036
:104AD00064414B005C41120E39D01B0E38D0FF2AC6
:104AE0003CD0FF2B3AD0D2187F3A40024902400A0C
:104AF000490A4518ED0106004E43000A090A4843D9
:104B00000104731A4019190C4318990F04D05B085B
:104B1000012149075B1A521CD80904D3401CF50334
:104B200001D19D0607D0FF2A08D2D50506D0E4079B
:104B30002043401970BD0125A843F4E7002A01DC99
:104B4000E00770BD2402FF202043C00570BD1B0E8E
:104B5000FF2A03D0FF2B01D0E00770BDFF263606E9
:104B60004500B54206D84D00B54203D8D218FF2AF9
:104B700000D0E7E7004870BD0000C07F70B5012598
:104B8000ED0704004C4022D4441A02D26C40001BB2
:104B90000919C60D4B00F2B2FF2A4BD01B0E50D0A4
:104BA00000020C02A8432C43D31ADC40051B05D598
:104BB000AD0019D36D08761E521E37D0F605280AAF
:104BC00001D2801970BD70416D0603D070BD69407F
:104BD000FFF712FF9C4009026140490001D0401ECE
:104BE00070BD0124A04370BD6D081DD001202B0CA9
:104BF00001D12D0410302B0E01D12D0208302B0FC6
:104C000001D12D01001DAB0F01D1AD00801CEB0FB8
:104C100001D16D00401C361A121A6D00680AF505A4
:104C20004019012A02DB70BD002070BDC036300A79
:104C3000C00770BD1B0E440201D1FF2B00D10248FA
:104C400070BD002AF0D070BD0000C07F03B40248E0
:104C50007844844603BC604789C1FFFF0400000814
:104C600000000000000000020001000010818283AB
:104C70008485868788898B8C8D8E8F91929395966B
:104C800097999A9C9D9FA0A2A3A5A7A8AAACAEB0F5
:104C9000B2B3B5B7B9BCBEC0C2C5C7C9CCCED1D4FA
:104CA000D7D9DCDFE2E6E9ECF0F3F7FAFE0000002A
:104CB00002400000000000A00000000005400000CD
:104CC000000000C8000000000C4000000000409CF4
:104CD00000000000194000000020BCBE00000000E1
:104CE00034400000BFC91B8E00000004B540000026
:104CF000504BCFD06607E2CF010000006C410000AE
:104D00003E8251AADFEEA73401000000D942000024
:104D1000DCB5A0E23A301F97FFFFFFFFB44500006B
:104D2000FD25A0C8E9A3C14FFFFFFFFFFF3F000023
:104D30000000008000000000FF3F00000000008035
:104D40000000000000000000000000000102030459
:104D5000060708090000000001020304000000002B
:104D60000000000000000000000000000000000043
:104D70000000000000000000000000000000000033
:104D80000000000C000C000C000C000C000C000CCF
:104D9000000C000C000C000C0000000C000C0000CB
:104DA000000000000000001B001B001B001B001B7C
:104DB00000000000000000000000000000000000F3
:104DC0000000000000000000000080198019801918
:104DD0008019C07FC07F80190033C07FC07F00333F
:104DE0000033003300330000000000000000001E0C
:104DF000003F807580650074003C001E0007800540
:104E0000806580658075003F001E0004000400007E
:104E10000000007000D840D8C0D880D900730006C8
:104E2000000C801BC036C066C046C0068003000070
:104E3000000000000000001E003F0033003300337C
:104E4000001E000CC03CC066806380618063C03E71
:104E5000801C0000000000000000000C000C000C92
:104E6000000C000C0000000000000000000000002A
:104E700000000000000000000000000080000001B1
:104E80000003000600060004000C000C000C000CDF
:104E9000000C000C00040006000600030001800066
:104EA000002000100018000C000C00040006000692
:104EB00000060006000600060004000C000C0018A6
:104EC000001000200000000C002D003F001E0033E9
:104ED00000000000000000000000000000000000D2
:104EE0000000000000000000000000000000000CB6
:104EF000000C000C000CC0FFC0FF000C000C000CEC
:104F0000000C000000000000000000000000000095
:104F10000000000000000000000000000000000091
:104F2000000000000000000C000C00040004000859
:104F30000000000000000000000000000000000071
:104F40000000001E001E0000000000000000000025
:104F50000000000000000000000000000000000051
:104F60000000000000000000000000000000000C35
:104F7000000C00000000000000000003000300031C
:104F80000006000600060006000C000C000C000CD9
:104F90000018001800180000000000000000001EAB
:104FA000003F0033806180618061806D806D806131
:104FB000806180610033003F001E0000000000009F
:104FC00000000006000E001E003600260006000647
:104FD00000060006000600060006000600060000A7
:104FE000000000000000001E003F807380618061AF
:104FF000800100030006000C001800300060807F74
:10500000807F0000000000000000001C003E0063E4
:1050100000630003000E000E000380018001806128
:105020008073003F001E000000000000000000062A
:10503000000E000E001E001E001600360036006630
:10504000807F807F00060006000600000000000050
:105050000000007F007F006000600060006E007F45
:1050600080638001800180618073003F001E00002A
:10507000000000000000001E003F803380610060DF
:10508000006E007F80738061806180618033003FAB
:10509000001E0000000000000000807F807F800173
:1050A0000003000300060006000C000C000C0008C2
:1050B0000018001800180000000000000000001E8A
:1050C000003F8063806180610021001E003F80619D
:1050D000806180618061003F001E000000000000D0
:1050E0000000001E003F007380618061806180735A
:1050F000803F801D800180610073003F001E000022
:105100000000000000000000000000000000000C93
:10511000000C000000000000000000000000000C77
:10512000000C000000000000000000000000000073
:1051300000000000000C000C000000000000000057
:105140000000000C000C0004000400080000000037
:105150000000000080008003000E0038006000386E
:10516000000E80038000000000000000000000002E
:1051700000000000000000000000807F807F000031
:105180000000807F807F0000000000000000000021
:10519000000000000000000000000000004000705F
:1051A000001C000780010007001C00700040000088
:1051B00000000000000000000000001F803FC071E0
:1051C000C060C000C00180030007000E000C000C8E
:1051D0000000000C000C0000000000000000001E99
:1051E000003F803180718063806F806D806D806F43
:1051F000806700600032003E001C000000000000DC
:105200000000000E000E001B001B001B001B803165
:105210008031803F803F8031C060C060C06000004E
:10522000000000000000007C007E0063006300635B
:105230000063007E007E0063806180618063007F88
:10524000007E0000000000000000001E003F8031D2
:10525000806100600060006000600060006080614C
:105260008031003F001E0000000000000000007CB4
:10527000007F006380638061806180618061806104
:10528000806100630063007E007C0000000000007D
:105290000000807F807F0060006000600060007F11
:1052A000007F0060006000600060807F807F000001
:1052B000000000000000807F807F006000600060D0
:1052C0000060007F007F00600060006000600060A0
:1052D00000600000000000000000001E003F803160
:1052E0008061006000600060806380638061806135
:1052F0008031803F001E000000000000000080613F
:1053000080618061806180618061807F807F806159
:105310008061806180618061806100000000000028
:105320000000003F003F000C000C000C000C000CC3
:10533000000C000C000C000C000C003F003F0000B3
:1053400000000000000080018001800180018001D8
:105350008001800180018001806180618073003F55
:10536000001E0000000000000000C06080610063BB
:1053700000660066006C0078007C006600660063D2
:1053800080618061C06000000000000000000060DB
:10539000006000600060006000600060006000600D
:1053A000006000600060807F807F000000000000DF
:1053B0000000C071C071C07BC07AC06AC06AC06E94
:1053C000C064C060C060C060C060C060C0600000F9
:1053D0000000000000008071807180798079807900
:1053E000806D806D806D8065806780678067806379
:1053F00080630000000000000000001E003F00333A
:105400008061806180618061806180618061806194
:105410000033003F001E0000000000000000007E7E
:10542000007F80638061806180618063007F007E97
:10543000006000600060006000600000000000008C
:105440000000001E003F0033806180618061806148
:1054500080618061806580670033803F401E00006E
:10546000000000000000007E007F8063806180619A
:105470008063007F007E006600630063806180615E
:10548000C0600000000000000000000E001F80311E
:10549000803100300038001E000780038061806189
:1054A0008031003F001E0000000000000000C0FF2F
:1054B000C0FF000C000C000C000C000C000C000CD9
:1054C000000C000C000C000C000C000000000000A0
:1054D00000008061806180618061806180618061A5
:1054E00080618061806180618073003F001E0000E8
:1054F000000000000000C060C060C06080318031EA
:105500008031001B001B001B001B000E000E000E54
:1055100000040000000000000000C0C0C0C0C0C007
:10552000C0C0C0C0C0CC804C804C805E80528052D5
:105530008073806180610000000000000000C0C036
:10554000806080610033003B001E000C000C001ED8
:10555000001F003B80718061C0C00000000000009F
:105560000000C0C08061806100330033001E001E57
:10557000000C000C000C000C000C000C000C0000D7
:10558000000000000000803F803F80010003000316
:105590000006000C000C0018001800300060807F2E
:1055A000807F000000000000000F000F000C000CC6
:1055B000000C000C000C000C000C000C000C000C8B
:1055C000000C000C000C000C000F000F0000001875
:1055D00000180018000C000C000C000C000600065F
:1055E00000060006000300030003000000000000A6
:1055F000001E001E0006000600060006000600064B
:10560000000600060006000600060006000600066A
:10561000001E001E0000000C000C001E00120033D3
:105620000033806180610000000000000000000085
:10563000000000000000000000000000000000006A
:10564000000000000000000000000000000000005A
:105650000000000000000000E0FF00000000003833
:105660000018000C00000000000000000000000016
:10567000000000000000000000000000000000002A
:1056800000000000000000000000001F803F80615B
:105690008001801F803F80618063807FC038000070
:1056A0000000000000000060006000600060006E0C
:1056B000007F807380618061806180618073007F82
:1056C000006E00000000000000000000000000006C
:1056D0000000001E003F80738061006000608061F8
:1056E0008073003F001E00000000000000008001E9
:1056F000800180018001801D803F80738061806116
:10570000806180618073803F801D00000000000088
:1057100000000000000000000000001E003F0073B9
:105720008061807F807F00608071003F001E0000EC
:10573000000000000000C007C00F000C000C807FBC
:10574000807F000C000C000C000C000C000C000C06
:10575000000C00000000000000000000000000003D
:10576000801D803F80738061806180618061807373
:10577000803F801D80018063007F003E000000604C
:10578000006000600060006F807F807180618061D8
:1057900080618061806180618061000000000000A4
:1057A00000000006000600000000003E003E00066B
:1057B00000060006000600060006000600060000BF
:1057C000000000000006000600000000003E003E51
:1057D0000006000600060006000600060006000699
:1057E00000060046007E003C000000600060006093
:1057F0000060806100630066006C007C00760063DE
:1058000000638061C0600000000000000000003EF6
:10581000003E000600060006000600060006000620
:10582000000600060006000600060000000000005A
:105830000000000000000000000080DDC0FFC0CEBE
:10584000C0CCC0CCC0CCC0CCC0CCC0CCC0CC000084
:105850000000000000000000000000000000006FD9
:10586000807F807180618061806180618061806102
:105870008061000000000000000000000000000047
:105880000000001E003F8073806180618061806144
:105890008073003F001E00000000000000000000B8
:1058A00000000000006E007F807380618061806175
:1058B00080618073007F006E0060006000600060A7
:1058C0000000000000000000801D803F80738061A8
:1058D0008061806180618073803F801D80018001D4
:1058E000800180010000000000000000000000674F
:1058F000803F003900300030003000300030003090
:105900000030000000000000000000000000000067
:105910000000001E803F80610060007F803F8001AA
:105920008061007F001E00000000000000000000F9
:10593000000800180018007F007F001800180018E9
:10594000001800180018801F800F000000000000E1
:1059500000000000000000000000806180618061A4
:1059600080618061806180618063807F803D000014
:105970000000000000000000000000000000C06007
:10598000803180318031001B001B001B000E000E97
:105990000006000000000000000000000000000001
:1059A000000080DD80DD80DD00550055005500776A
:1059B000007700220022000000000000000000002C
:1059C000000000000000806100330033001E000C66
:1059D000000C001E00330033806100000000000056
:1059E0000000000000000000806180618031003311
:1059F0000033001B001B001B000E000E000E001CDD
:105A0000007C007000000000000000000000C07F6B
:105A1000C07F800100030006000C00180030C07F2A
:105A2000C07F000000000000800380070006000621
:105A3000000600060006000E001C001C000E0006FA
:105A40000006000600060006800780030006000628
:105A50000006000600060006000600060006000616
:105A60000006000600060006000600060006000606
:105A70000038003C000C000C000C000C000C000E68
:105A800000070007000E000C000C000C000C000CBE
:105A9000003C003800000000000000000000000092
:105AA00000008038807F00470000000000000000F8
:105AB0000000000000000000030406080C1018207D
:105AC0003000000002000000040000000800000098
:105AD00010000000FDFFFFFFFBFFFFFFF7FFFFFFD0
